:100000004004002009070000070700000707000060
:1000100000000000000000000000000000000000E0
:1000200000000000000000000000000007070000C2
:10003000000000000000000007070000450100006C
:100040000707000007070000070700000707000078
:100050000707000007070000070700000000000076
:100060000707000007070000070700000707000058
:100070000707000007070000070700000707000048
:1000800007070000070700000707000010B5064C2F
:100090002378002B07D1054B002B02D0044800E049
:1000A00000BF0123237010BD0400002000000000E9
:1000B00098090000044B10B5002B03D003490448F5
:1000C00000E000BF10BDC046000000000800002096
:1000D000980900000C4B1B68002B0CD1EFF3108328
:1000E000002B0DD172B6BFF35F8F084B00221A7040
:1000F000074B01321A70044A1368013313607047CA
:10010000034B00221A70F6E72000002000000020B8
:1001100024000020084B1A68013A1A601B68002B63
:1001200009D1064B1B78002B05D0054B01221A7014
:10013000BFF35F8F62B670472000002024000020CC
:1001400000000020024B80229200DA617047C04616
:100150000044004100B583B000F0C9FA002000F06F
:10016000D3F9013880235B0498420DD20D4A5060C8
:100170000D48036A1B021B0AC02109060B430362D8
:10018000002393600733136001A901234B70002201
:100190008A700B70092000F025F8044B8022920031
:1001A0005A61FEE710E000E000ED00E0004400418D
:1001B00070B582B001AC012565700026A67025706F
:1001C0002100092000F00EF8054B802292005A61B0
:1001D000267065702100192000F004F802B070BD8F
:1001E0000044004100B583B00B0001A980220A70D1
:1001F0001A784A705A788A709B78CB7000F060FA4F
:1002000003B000BD10B5082803D880001D4B1B5853
:100210009F46002033E01C4B186930E01B4B1B6AE3
:100220009B059B0F1A48D84029E0174B586926E0D8
:10023000154B1B680222100018401A421FD01349A8
:100240000E32CB681A42FCD00F4B1A68242313409D
:10025000042B01D00F4812E0002000F0C9F90A4B2E
:100260009B681B041B0C584309E0084A5023D35CCD
:100270005B0705D5044BD86801E08020000210BD63
:100280000020FCE7300900002800002000080040A2
:1002900000127A00006CDC0270B50C490B6A04781D
:1002A000857840780122104080014026B343034303
:1002B0002A40D201802083431343032222401202AA
:1002C0000348034013430B6270BDC0460008004062
:1002D000FFFCFFFF082803D88300254AD3589F4618
:1002E00017207047234A136A02210B431362002030
:1002F000F7E7204A936902210B4393610020F0E75E
:100300001C4A138A02210B431382EAE7194A938A93
:1003100002210B4393820020E3E717490B68022276
:1003200013430B60134B9A8419000E32CB681A42A8
:10033000FCD0114A91680F4BD96252689A62002230
:100340009A8419001032CB681A42FCD00A4B1B6801
:100350009BB2084A93840020C3E7064944228B5C81
:10036000022003438B540020BBE70020B9E7C046BE
:1003700054090000000800402800002030B585B076
:100380001B4BC222D2009A601A4A53681E218B432B
:10039000536001236A4613700024E0B2694600F0FE
:1003A0001BF90134182CF8D103A80024447001254E
:1003B00085700470FFF770FF0620FFF78BFF00F0D9
:1003C0001DF80D4B1C725C729C72DC7201956B46C1
:1003D0005C7006236A4613701472547269460020DA
:1003E00000F01EF8002000F071F805B030BDC046E6
:1003F000000800400040004100040040064A9369A4
:1004000008210B439361054B01221A7019000B78E8
:100410001342FCD17047C04600040040000C00406D
:1004200070B5060005000C78240204434B78002BBD
:1004300002D08023DB021C434B7A002B02D08023A6
:100440001B031C434A68012A10D9531E15001D4086
:100450001A4230D1022A04D9022301355B009A42A4
:10046000FBD82D02354380235B031C430B7A002B02
:1004700002D080239B031C43124A53785BB2002BAB
:10048000FBDBFFF727FE104B1E700E4A53785BB262
:10049000002BFBDB0B4B9D601A0053785BB2002BEB
:1004A000FBDB084A5368802149020B401C4354601F
:1004B000FFF730FE70BD1502354380239B021C43BD
:1004C000D4E7C046000C0040080C004010B5040002
:1004D0000B4A53785BB2002BFBDBFFF7FBFD094BAC
:1004E0001C70074A53785BB2002BFBDB044A51684F
:1004F00080235B020B435360FFF70CFE10BDC04628
:10050000000C0040040C004070B504001A4A5378F7
:100510005BB2002BFBDBFFF7DDFD184B1C70164AAE
:1005200053785BB2002BFBDB134D6868C004C00E30
:10053000FFF768FE0600114B1C706D68ED02ED0FB1
:100540000F4B1C700C4A53785BB2002BFBDB0A4B41
:100550009C682402240CFFF7DDFD002D07D1012C3F
:1005600007D92100300000F033F9060001E0013422
:10057000E640300070BDC046000C0040040C004056
:10058000080C004010B50400FFF7A4FD0E4B1C70D2
:100590000E4A53881B05180F53880D490B40538092
:1005A00053880C490B40538011008022D2014B88A4
:1005B0001342FCD105494A8803020548024013430F
:1005C0004B80FFF7A7FD10BD020C0040000C00405F
:1005D000FFF0FFFFFFBFFFFF10B50C7824020443BC
:1005E000FFF7D0FFA4B2014B5C8010BD000C0040AF
:1005F00010B50400FFF76EFD054B1C70054B5C88C1
:100600002405240FFFF786FD2000FFF77DFF10BDB6
:10061000020C0040000C004030B5D378002B35D1DF
:100620001378802B29D01B0680246402234354783E
:100630000225AC4306D19478002C20D18024A4025A
:10064000234341605478013C012C1CD90C04240C38
:100650001C43A025ED052C4384620D0C1D43D024C2
:1006600024062C438462D478002C22D15B031CD551
:100670009378012B1ED0416117E00023D7E7C024F7
:10068000E4022343DDE70D4C2340DFE741600C0427
:10069000240CA023DB05234383620C0CD0231B0610
:1006A00023438362D378002B03D15378013B012B82
:1006B00002D930BD8161F8E78160FAE7FFFFFBFFF7
:1006C00010B503000A0041B200290BDB4009C0014C
:1006D00005498C4660441F210B401E399940FFF7A5
:1006E0009BFF10BD0020F6E700440041704710B5A5
:1006F000FFF744FEFFF75CFDFFF7F8FFFFF7F6FF9B
:10070000FFF7F4FF10BDFEE710B5274A274B9A42CA
:1007100012D01A00264B9A420ED21A00013A234BED
:10072000D21A920801329200002320481E49CC5868
:10073000C45004339342FAD11E4A1F4B9A420BD243
:1007400013001D4A013AD21A03218A43191D521877
:10075000002102C39342FCD1184BFF229343184A55
:100760009360184A90235B000221D150164B9A7B6C
:100770002E318A4320210A439A739A7B0C218A43A3
:1007800008210A439A739A7B03218A4302210A4370
:100790009A730E4A536880210B43536000F0A4F80B
:1007A000FFF7D8FCFEE7C0469809000000000020D3
:1007B0000400002004000020400000200000000091
:1007C00000ED00E0007000410048004100400041A1
:1007D000002243088B4274D303098B425FD3030A80
:1007E0008B4244D3030B8B4228D3030C8B420DD393
:1007F000FF22090212BA030C8B4202D31212090221
:1008000065D0030B8B4219D300E0090AC30B8B425E
:1008100001D3CB03C01A5241830B8B4201D38B030C
:10082000C01A5241430B8B4201D34B03C01A5241B1
:10083000030B8B4201D30B03C01A5241C30A8B42F4
:1008400001D3CB02C01A5241830A8B4201D38B02DF
:10085000C01A5241430A8B4201D34B02C01A524183
:10086000030A8B4201D30B02C01A5241CDD2C309F5
:100870008B4201D3CB01C01A524183098B4201D371
:100880008B01C01A524143098B4201D34B01C01A5C
:10089000524103098B4201D30B01C01A5241C308D4
:1008A0008B4201D3CB00C01A524183088B4201D343
:1008B0008B00C01A524143088B4201D34B00C01A2F
:1008C0005241411A00D20146524110467047FFE79B
:1008D00001B5002000F006F802BDC0460029F7D09F
:1008E00076E770477047C04670B500260C4D0D4C3A
:1008F000641BA410A64209D1002600F03DF80A4D61
:100900000A4C641BA410A64205D170BDB300EB587D
:1009100098470136EEE7B300EB5898470136F2E707
:10092000840900008409000084090000880900008F
:100930001602000012020000120200007A020000FB
:100940007A0200002A0200001C02000030020000AF
:100950006A02000000030000E0020000E002000064
:100960006A030000F20200000C030000E402000031
:100970001A0300005A030000F8B5C046F8BC08BCD2
:100980009E467047B5000000F8B5C046F8BC08BCEC
:080990009E4670478D00000037
:04099800010000005A
:0400000300000709E9
:00000001FF
