:1000000088050020191700001517000015170000BB
:1000100000000000000000000000000000000000E0
:1000200000000000000000000000000015170000A4
:100030000000000000000000151700001517000068
:100040001517000015170000151700001517000000
:10005000E90400001517000015170000000000005B
:10006000151700008909000099090000A90900007E
:10007000151700006D14000077140000151700001C
:1000800015170000151700001517000010B5064CD5
:100090002378002B07D1054B002B02D0044800E049
:1000A00000BF0123237010BD70000020000000007D
:1000B0005C2E0000044B10B5002B03D0034904480C
:1000C00000E000BF10BDC04600000000740000202A
:1000D0005C2E00000C4B1B68002B0CD1EFF310833F
:1000E000002B0DD172B6BFF35F8F084B00221A7040
:1000F000074B01321A70044A1368013313607047CA
:10010000034B00221A70F6E78C000020000000204C
:1001100090000020084B1A68013A1A601B68002BF7
:1001200009D1064B1B78002B05D0054B01221A7014
:10013000BFF35F8F62B670478C00002090000020F4
:100140000000002010B5002001F036F80400FA216C
:10015000890001F0ADFB064B18600649200001F054
:10016000A7FB054B1860054B05221A6010BDC04661
:100170000400002040420F000800002010E000E0D2
:1001800030B5441E002810D0084B1868084A0025D6
:100190008021490201E0013C07D30028FBD05060D8
:1001A000956013680B42FCD0F5E730BD04000020D9
:1001B00010E000E0064B1B6A9B0104D5044B802233
:1001C00092005A617047024B802292009A61F9E7CF
:1001D0000044004130B583B004000D006B4600229E
:1001E000DA806B46991D200000F067FD0028F8D1E9
:1001F0006B4606331B882B7003B030BD70B505000D
:100200000C002100280000F045FD0028F9D170BD48
:1002100010B50400094B1A68501C1860C8218900E9
:1002200001F0CCFB002904D00549200001F05AFA66
:1002300010BD044801F022FCF6E7C046C8000020CB
:10024000EFD800007C2C000070B592B001F0BBF834
:1002500001AA8023DB05019300235360FF21118154
:1002600000219372D37201242420145401301454B9
:10027000013013540130135493620530135401308C
:10028000135453611382D376117611775176132369
:1002900093765177C4239B03D36001235B4213639E
:1002A00053635C4B93635C4BD36396231B021362D3
:1002B0005A4D5B4B1D605B4B5B4919605B4B5C4966
:1002C00019605C49280000F077FB5B4E3368986842
:1002D000002101F069FC33685868002101F064FCDA
:1002E0002E68300000F040FB1F2303409C40534B1E
:1002F0001C602A68D369002BFCD1336802221343A7
:10030000336001AC200000F051F91923019300255E
:100310006560163BE372023BA3722100052000F0EA
:100320004FF900220521464800F0B6F800210520CB
:1003300000F0CAF82570A5700023A580A37125815F
:100340006370A372E3722373A37363732374656191
:10035000A5612377256265626585A585394B23856F
:10036000394D22003949280001F09CF82A68D37BD6
:100370005BB2002BFBDB138802210B431380324D51
:1003800000223349280001F02AF8286801F078F8A3
:10039000304B1A5C1F231340012422009A40274B44
:1003A0001A606B7E012213436B762B685C73FFF738
:1003B000C9FE294801F0EEFB284B1C70BFF35F8F8C
:1003C00062B611A94C7000238B700C70092000F0EC
:1003D00031F9234C8025AD006561E561FA26B60050
:1003E0003000FFF7CDFEE5613000FFF7C9FEE561A3
:1003F0003000FFF7C5FE1424194EF5616420FFF7A5
:10040000BFFE013C002CF8D1154B802292005A61AE
:10041000FEE7C04603000A0003000B009400002022
:10042000700100206C010020FD0100006801002027
:10043000D5010000001000420C00002000E100E0A7
:10044000B5010000EFD8FFFFCC00002000180042EB
:1004500011020000482D0000A42C00000000002024
:100460000044004170B582B001AC012565700026E2
:10047000A67025702100092000F0DCF8054B8022D1
:1004800092005A61267065702100192000F0D2F8A0
:1004900002B070BD0044004110B50400002A0ED126
:1004A0008B0008481B58002B03D01D20A34204D00A
:1004B00010BD89000C501000FAE71000F8E7172073
:1004C000F6E7C046EC000020002908D100221F28D2
:1004D00000D8044A01238340D360080070471720E6
:1004E000FCE7C0460018004070B50F4B00221A70A0
:1004F00000231F260D4C0C4D05E02B780133DBB299
:100500002B700F2B0FD83100194001228A40084967
:1005100009691142F1D006490A619B001B59002B61
:10052000EBD09847E9E770BDE8000020EC00002020
:1005300000180040044A137802210B4313705378CB
:100540005BB2002BFBDB70470018004000B583B0A6
:10055000124A936940210B43936101A900230B7058
:10056000052000F0A5FE052000F064FE0C4A13787B
:1005700001210B43137053785BB2002BFBDB094B5B
:1005800019004031002204C39942FCD1064B1022CD
:100590001A60FFF7CFFF03B000BDC0460004004063
:1005A00000180040EC00002000E100E000230360A0
:1005B000436001220272427283720233C372704737
:1005C000F0B583B005000C0001A900234B70CB707F
:1005D00063680B70237A8B70207800F0DDFE0020BA
:1005E0001F2D00D8124807222A409200E77AA37AEA
:1005F000002B01D008231F43EB089B00C318996907
:100600000F269640B14397403A000A439A61637AB5
:10061000002B06D042690123AB401343436103B072
:10062000F0BD43690122AA4093434361F7E7C04606
:100630000018004000B583B00B0001A980220A70A9
:100640001A784A705A788A709B78CB7000F0A4FEB2
:1006500003B000BDF0B5DE4657464E464546E0B510
:1006600087B08046049116001F000022002300215D
:100670008B463F2401312000009601975C4603948D
:100680004446059413E02024241A0D00E540A846B2
:1006900014E0009C019D121BAB415C464D462C436F
:1006A000A346039C45462C430394013825D32024BC
:1006B00064420419E7D40D00A540A8460C0084400C
:1006C000A14692185B4114001D00059E4F463E4016
:1006D000B446049E47463E40B246664657463E43B1
:1006E00003D00E00264332002B00009C019D9D424A
:1006F000DBD8CED19442D8D8CBE7039B584619001B
:1007000007B0F0BCBB46B246A946A046F0BD10B546
:10071000490881420BD30023091A1C0001339BB204
:100720008842F9D9FF2C04D81480002010BD402045
:10073000FCE74020FAE7F0B5C64600B505000C001E
:10074000160006AA10782A0042438A423BD8002BA2
:1007500017D12A00002101F037F9010022000023FF
:100760000020FFF777FF002201231C0013001B1A53
:100770008C411A0C200402433280002080BCB84611
:10078000F0BD0022012BF7D1020000232800002138
:1007900001F01AF980460F0002000B002000002132
:1007A000FFF758FF050080239B0198420DD8610F89
:1007B000E00042463B00FFF74DFFEA00821AD2B24A
:1007C00052032A43D8E74020D8E74020D6E700006C
:1007D00010B582B004000F4B1B78002B0BD0002902
:1007E00009D10C4B5878001B431E984140421D24F0
:1007F000204002B010BD01A90C700D2000F058FD82
:100800000D2000F017FD034B5C7001221A700020D0
:10081000EFE7C0462C0100200300264A90421BD07F
:10082000254A90422CD0254A0020934200D07047A0
:10083000022939D006D84B1E99410804204B9C460A
:100840006044F4E703394B1E994149421D48084072
:100850001D4B9C466044EAE7022927D006D84B1E70
:1008600099410804194B9C466044E0E703394B1E4C
:100870009941494216480840164B9C466044D6E7C9
:10088000022915D006D84B1E99410804124B9C46EC
:100890006044CCE703394B1E994149420F48084058
:1008A0000F4B9C466044C2E70E48C0E70E48BEE7C7
:1008B0000E48BCE7000C0042001000420008004255
:1008C00003000400FDFFF8FF03000700020016000C
:1008D000FDFFE0FF03001F0003001600FDFFE6FF21
:1008E000030019000300060003001E0003001000AF
:1008F00030B585B001AA0B4B32CB32C20300019A4E
:1009000082420AD0029A82420AD00020039A9A4276
:1009100001D005B030BD023000E00020C0B2F8E7E1
:100920000120FBE74C2D00007047000030B50A4B5A
:100930001B78002B0CD1094C094D2560094B002276
:100940001A6065605A60A5609A60034B01321A70A4
:100950008000024BC15030BD2E0100203C01002020
:10096000290900003001002010B582B001AC054B10
:100970001A8822809B78A370FFF7BAFF205602B036
:1009800010BDC046582D000010B5024B1B6800205A
:10099000984710BD3C01002010B5024B5B68012058
:1009A000984710BD3C01002010B5024B9B68022007
:1009B000984710BD3C010020F0B5DE4657464E4634
:1009C0004546E0B58DB005000F0014000160080039
:1009D000FFF78EFF3B68DB0700D54EE13B689B07C6
:1009E00000D54CE1A74A116A861C0123B3400B4392
:1009F00013620BA92D239846E35C0B700E30C6B230
:100A0000300000F055FC300000F014FC4346E05C80
:100A10000021FFF7DDFEE37A6B712423E35CAB7109
:100A20002523E35CEB71E37E2B72237F6B722B68D3
:100A300098461800FFF75CFF0E2302AA9446634411
:100A400000221A80228AC023DB019A423DD033D88B
:100A500080239B019A423DD08023DB019A423ED104
:100A600008239B4600239A462623E35C5B079946AE
:100A700063682668E1680E4361690E431E431643AE
:100A8000227E12021643002B33D08022520593425D
:100A900041D12723E35C002B3DD1236A9A460E30D7
:100AA000C0B200F011FC01000E2202AB9C46624471
:100AB0005046FFF72CFE2BE080231B029A4213D1F5
:100AC00003239B4600239A46CEE708239B46073B19
:100AD0009A46C9E710239B460F3B9A46C4E710236A
:100AE0009B4600239A46BFE710239B4600239A4665
:100AF000BAE72723E35C002B67D05B46009353469D
:100B00000E2202A98C466244A16A206AFFF713FEF6
:100B1000002800D0AAE0637E002B02D0A37E4246CC
:100B200093730E2302AA944663441B884246938122
:100B30004B4633431E002723E35C002B01D10433D3
:100B40001E43637E9B02227F52021343627F120286
:100B500013432422A25C520413432522A25C1204F4
:100B60001343A17AE27A114319432389FF2B3ED024
:100B700080225204164319432C23E35C002B03D13B
:100B8000414B9B789B0701D580231E432A68D3697C
:100B9000002BFCD1434659602A68D369002BFCD155
:100BA00043461E600AAB80221A7000225A70DA7027
:100BB0009A70236B0693636B0793A36B0893E36BA5
:100BC0000393099306AE002422E0236A03930E30B8
:100BD000C0B200F079FB01005A46009253460E2243
:100BE00002A8844662440398FFF7A5FD90E7E37EE0
:100BF000002BC1D08023DB041E43BDE72100380059
:100C0000FFF70AFE07E00134E4B20436042C0ED0EC
:100C100030680028F2D0431CF5D002AB20229B188C
:100C20001870000CC0B20AA900F0B6FBEBE7002375
:100C3000EB602B616B61AB61EB612B62AB626B6252
:100C40000022EB85AB853033EA540133EA5401339B
:100C5000EA540133EA542868FFF74AFE04000B49BE
:100C6000FFF764FEA4000A4BE55000200DB0F0BC75
:100C7000BB46B246A946A046F0BD0520F6E71C20BB
:100C8000F4E7C0460004004000200041290D0000A8
:100C900030010020C379002B0BD0C38D9BB2002BF9
:100CA00009D1026811850221137E0B42FCD000207D
:100CB00070471C20FCE70520FAE78379002B2DD034
:100CC000838D9BB2002B2BD103681A7E520729D546
:100CD0005A8BD0B2920609D082070BD442070DD4AA
:100CE000C2070FD4C20611D4820613D41B8D0B8009
:100CF0000020704702225A831A20FAE704225A83FE
:100D00001E20F6E701225A831320F2E710225A83AD
:100D10004220EEE720225A834120EAE71C20E8E740
:100D20000520E6E70520E4E7F8B58000604BC558EC
:100D30002C68E369002BFCD1237EA67D1E40302366
:100D4000EB5C3122AF5C1F40F30722D5EB8D9BB2E9
:100D5000002B1CD0AA6A1378DBB2511CA9626979F6
:100D600001290ED09BB2DB05DB0D2385EB8D013B0A
:100D70009BB2EB85002B0CD1013323750133A37596
:100D800007E0517809020B430232AA62EBE7012324
:100D90002375B30709D50223237531330022EA54A2
:100DA000FB0702D52800EB689847730761D5AB8D28
:100DB0009BB2002B5BD0628BD3B2120710D43F22C0
:100DC0001340002B30D09A070DD532231A22EA5453
:100DD000303B63837B074CD528006B69984748E01C
:100DE00037221340EDE75A0705D532231E22EA5475
:100DF0002E3B6383EEE7DA0705D532231322EA544C
:100E0000313B6383E6E7DA0605D532234222EA5412
:100E1000223B6383DEE720221A42DBD032232132D9
:100E2000EA54123B6383D5E7238DDB05DB0DDAB291
:100E3000696A0A706A6A511C69626979012910D06D
:100E4000AB8D013B9BB2AB85002B12D104332375D4
:100E50002E330022EA54BB070BD528002B69984794
:100E600007E01B0A53706B6A01336B62E8E70423E7
:100E70002375F30607D5102323752376FB0602D5C9
:100E80002800EB699847B30607D5202323752376FE
:100E90003B0702D52800AB699847330707D50823DD
:100EA00023752376BB0602D52B6A28009847F8BD28
:100EB0003001002010B5082803D880001D4B1B58B6
:100EC0009F46002033E01C4B186930E01B4B1B6A27
:100ED0009B059B0F1A48D84029E0174B586926E01C
:100EE000154B1B680222100018401A421FD01349EC
:100EF0000E32CB681A42FCD00F4B1A6824231340E1
:100F0000042B01D00F4812E0002000F0DDF90A4B5D
:100F10009B681B041B0C584309E0084A5023D35C10
:100F20005B0705D5044BD86801E08020000210BDA6
:100F30000020FCE75C2D0000480100200008004074
:100F400000127A00006CDC0270B50C490B6A047860
:100F5000857840780122104080014026B343034346
:100F60002A40D201802083431343032222401202ED
:100F70000348034013430B6270BDC04600080040A5
:100F8000FFFCFFFF082803D88300254AD3589F465B
:100F900017207047234A136A02210B431362002073
:100FA000F7E7204A936902210B4393610020F0E7A1
:100FB0001C4A138A02210B431382EAE7194A938AD7
:100FC00002210B4393820020E3E717490B680222BA
:100FD00013430B60134B9A8419000E32CB681A42EC
:100FE000FCD0114A91680F4BD96252689A62002274
:100FF0009A8419001032CB681A42FCD00A4B1B6845
:101000009BB2084A93840020C3E7064944228B5CC4
:10101000022003438B540020BBE70020B9E7C04601
:10102000802D0000000800404801002030B585B048
:101030001B4BC222D2009A601A4A53681E218B436E
:10104000536001236A4613700024E0B2694600F041
:101050002FF90134182CF8D103A80024447001257D
:1010600085700470FFF770FF0620FFF78BFF00F01C
:101070001DF80D4B1C725C729C72DC7201956B4604
:101080005C7006236A46137014725472694600201D
:1010900000F01EF8002000F071F805B030BDC04629
:1010A000000800400040004100040040064A9369E7
:1010B00008210B439361054B01221A7019000B782C
:1010C0001342FCD17047C04600040040000C0040B1
:1010D00070B5060005000C78240204434B78002B01
:1010E00002D08023DB021C434B7A002B02D08023EA
:1010F0001B031C434A68012A10D9531E15001D40CA
:101100001A4230D1022A04D9022301355B009A42E7
:10111000FBD82D02354380235B031C430B7A002B45
:1011200002D080239B031C43124A53785BB2002BEE
:10113000FBDBFEF7CFFF104B1E700E4A53785BB2FD
:10114000002BFBDB0B4B9D601A0053785BB2002B2E
:10115000FBDB084A5368802149020B401C43546062
:10116000FEF7D8FF70BD1502354380239B021C4358
:10117000D4E7C046000C0040080C004010B5040045
:101180000B4A53785BB2002BFBDBFEF7A3FF094B46
:101190001C70074A53785BB2002BFBDB044A516892
:1011A00080235B020B435360FEF7B4FF10BDC046C3
:1011B000000C0040040C004070B504001A4A53783B
:1011C0005BB2002BFBDBFEF785FF184B1C70164A49
:1011D00053785BB2002BFBDB134D6868C004C00E74
:1011E000FFF768FE0600114B1C706D68ED02ED0FF5
:1011F0000F4B1C700C4A53785BB2002BFBDB0A4B85
:101200009C682402240CFEF785FF002D07D1012CD9
:1012100007D92100300000F04BFB060001E001344B
:10122000E640300070BDC046000C0040040C004099
:10123000080C004010B50400FEF74CFF054B1C7075
:10124000054A53888021C9010B435380FEF762FF92
:1012500010BDC046020C0040000C004010B5040058
:10126000FEF738FF0E4B1C700E4A53881B05180FF3
:1012700053880D490B40538053880C490B405380D1
:1012800011008022D2014B881342FCD105494A88C3
:1012900003020548024013434B80FEF73BFF10BD9D
:1012A000020C0040000C0040FFF0FFFFFFBFFFFFFB
:1012B00010B50C7824020443FFF7D0FFA4B2014B11
:1012C0005C8010BD000C004010B50400FEF702FF6A
:1012D000054B1C70054B5C882405240FFEF71AFF94
:1012E0002000FFF769FF10BD020C0040000C004019
:1012F00030B5D378002B35D11378802B29D01B063D
:1013000080246402234354780225AC4306D19478A8
:10131000002C20D18024A402234341605478013C56
:10132000012C1CD90C04240C1C43A025ED052C43D6
:1013300084620D0C1D43D02424062C438462D4788F
:10134000002C22D15B031CD59378012B1ED0416168
:1013500017E00023D7E7C024E4022343DDE70D4C68
:101360002340DFE741600C04240CA023DB0523436A
:1013700083620C0CD0231B0623438362D378002B9B
:1013800003D15378013B012B02D930BD8161F8E7CD
:101390008160FAE7FFFFFBFF10B503000A0041B2CE
:1013A00000290BDB4009C00105498C4660441F2120
:1013B0000B401E399940FFF79BFF10BD0020F6E758
:1013C00000440041704710B5FFF730FEFFF74AF8C0
:1013D000FFF7F8FFFFF7BAF8FFF7F4FF10BD931C13
:1013E0009B00C150022A09D0032A0CD0012393404C
:1013F0001A00037E1343037600207047037E1022F9
:1014000013430376F8E7037E202213430376F3E7C2
:1014100070B58000144BC45823689D7B227E637E88
:1014200013401D40EB0705D52000A3689847012312
:1014300022689373AB0705D52000E3689847022321
:1014400022689373EB0605D5200023699847102383
:1014500022689373AB0605D520006369984723681B
:1014600020229A7370BDC0466001002010B5002094
:10147000FFF7CEFF10BD10B50120FFF7C9FF10BD6B
:101480000300064A904206D0054A0020934200D04D
:101490007047013000E00020C0B2F9E700180042B8
:1014A000001C0042F0B5C64600B584B004000E0032
:1014B00015000800FFF7E4FF804603AB864A1A8058
:1014C00002AB40221A8040325A800023A360E360BE
:1014D00023616361237663768200804BD45026605B
:1014E000AB78082B00D181E023713388DB0700D56E
:1014F000ECE0F27B102317001F401A4200D0E7E017
:1015000033889B0700D5E5E02B7C002B00D073E0EF
:101510002B7F002B00D07BE07149086A43465A00BC
:1015200002ABD35A03430B62AB78082B00D17CE0AB
:101530002B786A46137003AB42469B5C984669461B
:101540001800FFF7B5FE4046FFF774FE2989AB8807
:101550000B43A978AA79114319436B78002B02D069
:1015600080231B0119432268D37B5BB2002BFBDB7A
:1015700031806B7B3900002B00D00421AB7B002B2A
:1015800002D001231943C9B22268D37B5BB2002B7E
:10159000FBDBFF233371002905D02268D37B5BB2CC
:1015A000002BFBDB7171A97AEB7A002B01D01023A1
:1015B00019432B7B002B01D0202319432268D37BB6
:1015C0005BB2002BFBDBB1712268D37B5BB2002BDB
:1015D000FBDB217904292ED0082962D000294AD0CA
:1015E0001727380004B080BCB846F0BD0200D2070F
:1015F00000D479E71727F4E701A901238B700022B3
:10160000CA70AA690A704B70287DFFF7C5FE7FE794
:1016100001A901238B700022CA706A6A0A704B709C
:101620002B6AD8B2FFF7B8FE76E70A000B6A802172
:101630000B4313627CE7D37B5BB2002BFBDB2823DD
:10164000EB5C33742268D37B5BB2002BFBDB29237A
:10165000EB5C33752268D37B5BB2002BFBDB2A2368
:10166000EB5C33762268D37B5BB2002BFBDB2B2356
:10167000EB5C7376B5E7D37B5BB2002BFBDB2B8D8A
:1016800033822268D37B5BB2002BFBDB6B8D338311
:101690002268D37B5BB2002BFBDBAB8D73830F0027
:1016A0009FE7D37B5BB2002BFBDBAB6A3361226825
:1016B000D37B5BB2002BFBDBEB6AB3612268D37B8D
:1016C0005BB2002BFBDB2B6BF3618AE7052788E716
:1016D0001C2786E71C2784E7121200006001002007
:1016E000000400400268D37B5BB2002BFBDB007977
:1016F000042805D008280AD0002805D017207047F4
:10170000C9B211740020FAE789B21182F7E71161BA
:101710000020F4E7FEE7000010B5274A274B9A4265
:1017200012D01A00264B9A420ED21A00013A234BCD
:10173000D21A920801329200002320481E49CC5848
:10174000C45004339342FAD11E4A1F4B9A420BD223
:1017500013001D4A013AD21A03218A43191D521857
:10176000002102C39342FCD1184BFF229343184A35
:101770009360184A90235B000221D150164B9A7B4C
:101780002E318A4320210A439A739A7B0C218A4383
:1017900008210A439A739A7B03218A4302210A4350
:1017A0009A730E4A536880210B43536000F03AF954
:1017B000FEF74AFDFEE7C0465C2E00000000002058
:1017C0007000002070000020880100200000000050
:1017D00000ED00E000700041004800410040004181
:1017E000F0B5C64600B50C00904600280FD1002A7F
:1017F00011DD8F18094E0A4D306821002B6898477B
:101800000134BC42F8D1404680BCB846F0BD01234B
:101810005B429846F7E78046F5E7C0467001002036
:1018200068010020F0B5C64600B50E00150001386D
:10183000022810D8002A11D000240C4B98460C4FD7
:1018400043461868315D3B689847002808DB01343F
:10185000A542F5D106E00124644203E0140001E052
:1018600001246442200080BCB846F0BD7001002015
:101870006C0100200300064A1268002A04D0044AC2
:101880001068C31813607047014A02491160F6E7F7
:101890007401002088050020012040427047802309
:1018A0009B014B600020704701207047002070476B
:1018B000002243088B4274D303098B425FD3030A8F
:1018C0008B4244D3030B8B4228D3030C8B420DD3A2
:1018D000FF22090212BA030C8B4202D31212090230
:1018E00065D0030B8B4219D300E0090AC30B8B426E
:1018F00001D3CB03C01A5241830B8B4201D38B031C
:10190000C01A5241430B8B4201D34B03C01A5241C0
:10191000030B8B4201D30B03C01A5241C30A8B4203
:1019200001D3CB02C01A5241830A8B4201D38B02EE
:10193000C01A5241430A8B4201D34B02C01A524192
:10194000030A8B4201D30B02C01A5241CDD2C30904
:101950008B4201D3CB01C01A524183098B4201D380
:101960008B01C01A524143098B4201D34B01C01A6B
:10197000524103098B4201D30B01C01A5241C308E3
:101980008B4201D3CB00C01A524183088B4201D352
:101990008B00C01A524143088B4201D34B00C01A3E
:1019A0005241411A00D20146524110467047FFE7AA
:1019B00001B5002000F006F802BDC0460029F7D0AE
:1019C00076E770477047C046F0B5CE46474680B5CB
:1019D000070099463B0C9C4613041B0C1D000E008F
:1019E00061460004140C000C45434B4360436143C3
:1019F000C0182C0C20188C46834203D980235B022C
:101A00009846C444494679437243030C63442D0409
:101A10002D0CC918000440198918C0BCB946B0463D
:101A2000F0BDC04670B500260C4D0D4C641BA410D3
:101A3000A64209D1002601F001FA0A4D0A4C641BA6
:101A4000A410A64205D170BDB300EB5898470136EB
:101A5000EEE7B300EB5898470136F2E7482E000056
:101A6000482E0000482E00004C2E00000300821873
:101A7000934200D1704719700133F9E70FB40B4B53
:101A800013B51C68002C05D0A369002B02D12000DF
:101A900000F058FB05AB2000049AA168019300F008
:101AA0003BFD16BC08BC04B01847C0460C00002023
:101AB00070B505000E00002804D08369002B01D109
:101AC00000F040FBAB69AC68002B02D1280000F0AD
:101AD00039FB2D4B9C4222D16C68636EDB0705D429
:101AE000A3899B0502D4A06D00F0CDFBA3891B0741
:101AF00002D52369002B29D12100280000F07CF9B0
:101B0000002823D001256D42636EDB0705D4A3892D
:101B10009B0502D4A06D00F0B7FB280070BD1B4BE5
:101B20009C4201D1AC68D8E7194B9C42D5D1EC68F6
:101B3000D3E70136A360002B04DAA2699A4216DCCF
:101B40000A2914D023685A1C22601970A3683178BE
:101B5000013B0029EDD1A360002B0FDA2800220001
:101B60000A3100F0F3F80A25431CCDD1CAE7220060
:101B7000280000F0EBF8431CE8D1C3E70A252368EE
:101B80005A1C22601D70BFE7C82D0000E82D000020
:101B9000A82D000010B5034B01001868FFF788FF5F
:101BA00010BDC0460C0000204A424A41802310B5B7
:101BB0005200DB0000F002F810BD0000F0B51D007F
:101BC0005D4B85B01E6804000F000092002E05D00A
:101BD000B369002B02D1300000F0B4FA574B9C429D
:101BE00061D17468009B022B05D0012B00D99DE0C8
:101BF000002D00DA9AE0636EDB0705D4A3899B050C
:101C000002D4A06D00F03FFB2100300000F0F8F995
:101C1000616B002908D023004433994202D0300080
:101C200000F0AAFB002363630023A3616360A38920
:101C30001B0603D53000216900F09EFBA389404AB2
:101C40001340A381009B022B00D169E003AB21006C
:101C5000300002AA00F01AFBA3890343A381002DE0
:101C60002BD1029D280000F07DFB071E53D1029B63
:101C70000193AB4249D101256D420223A289616ED5
:101C800013430022A2602200473222602261012217
:101C90001BB2A3816261114234D19B0532D4A06D85
:101CA00000F0F2FA2EE0274B9C4201D1B46899E78C
:101CB000254B9C4296D1F46894E7002FD2D0B369AB
:101CC000002B02D1300000F03DFA009B012B02D125
:101CD000A2891343A381A2890823110027602761E9
:101CE000656119401A421FD0D3071BD500236D42EE
:101CF000A360A561616E01230D001D40194218D13A
:101D00009305CCD5280005B0F0BD019800F02AFB62
:101D1000019D071EAFD08023A2891343A381CEE784
:101D20000025AAE7A560E5E7A160E3E701256D428C
:101D3000E8E70025E6E7C0460C000020C82D0000BB
:101D40005CF3FFFFE82D0000A82D0000F8B50500AA
:101D50000E001400002804D08369002B01D100F08C
:101D6000F1F9224B9C422ED16C68A369A360A38930
:101D70001B0732D52369002B2FD023682269F7B2C5
:101D8000981A6369F6B2834205DC2100280000F04E
:101D900037F9002827D1A3680130013BA3602368ED
:101DA0005A1C22601F706369834204D0A389DB0739
:101DB00007D50A2E05D12100280000F021F90028BE
:101DC00011D13000F8BD0A4B9C4201D1AC68CCE780
:101DD000084B9C42C9D1EC68C7E72100280000F0FD
:101DE0000BF80028C9D001267642EAE7C82D00008A
:101DF000E82D0000A82D0000374B70B51D680600C7
:101E00000C00002D05D0AB69002B02D1280000F09A
:101E100099F9324B9C420FD16C680C23E25E93B26D
:101E200011072DD4D90611D409230120336037338B
:101E30001343A381404270BD294B9C4201D1AC6841
:101E4000EBE7284B9C42E8D1EC68E6E75B0713D54B
:101E5000616B002908D023004433994202D030003E
:101E600000F08AFA002363632422A3899343A381A9
:101E700000236360236923600823A2891343A3819D
:101E80002369002B0BD1A0218022A3898900920015
:101E90000B40934203D02100300000F01FFA0C22C7
:101EA000A35E01201A0099B2024003420FD0002223
:101EB000A26062695242A261002022698242BAD1C4
:101EC0000A06B8D540221343A3810138B3E7880737
:101ED00000D46269A260EFE70C000020C82D00006A
:101EE000E82D0000A82D0000F7B58B8905000C0037
:101EF0001A075FD44A68002A04DC0A6C002A01DC55
:101F00000020FEBDE76A002FFAD0002280212E6853
:101F10002A601A0049010A400B4234D0606DA3893F
:101F20005B0706D56368C01A636B002B01D0236C76
:101F3000C01A0200216A00232800E76AB847A18975
:101F4000431C06D12B681D2B31D82C4ADA40D3070D
:101F50002DD50023636023692360CB0405D5431C82
:101F600002D12B68002B00D16065616B2E600029C7
:101F7000C6D023004433994202D0280000F0FCF977
:101F800000206063BDE701232800216AB847431C95
:101F9000C5D12B68002BC2D01D2B01D0162B01D12F
:101FA0002E60ADE74023A2891343A381A9E7402314
:101FB0000B43FAE70F69002FA2D00A680F60D21B0B
:101FC000019200229B0700D14A69A260019B002B6D
:101FD00000DC95E73A002800019B216AA66AB04719
:101FE000002806DC40230120A28940421343A3813C
:101FF00087E7019B3F181B1A0193E7E70100402088
:102000000B6970B505000C00002B02D100252800DB
:1020100070BD002804D08369002B01D100F092F834
:10202000144B9C421BD16C680C22A35E002BEDD09C
:10203000626ED20704D49B0502D4A06D00F023F990
:1020400028002100FFF750FF636E0500DB07DED498
:10205000A3899B05DBD4A06D00F016F9D7E7064BEA
:102060009C4201D1AC68DFE7044B9C42DCD1EC68B8
:10207000DAE7C046C82D0000E82D0000A82D0000BA
:10208000002310B5040003604360836081814366D0
:102090001900C28103614361836108225C30FFF74C
:1020A000E5FC054B24626362044BA362044BE362CC
:1020B000044B236310BDC046B52A0000DD2A000092
:1020C000152B0000412B000010B5024900F0BAF8B2
:1020D00010BDC0460120000070B568254A1E55435A
:1020E0000E002900743100F091F9041E08D000217F
:1020F0002A00016046600C30A0606832FFF7B6FC31
:10210000200070BD10B5024800F0BDF810BDC046FB
:102110007901002010B5024800F0B6F810BDC046A5
:102120007901002010B5024800F0ADF810BDC0469E
:102130007A01002010B5024800F0A6F810BDC04694
:102140007A01002013B50400FFF7ECFFA369002B10
:1021500002D0FFF7EFFF13BDA364E3642365134BC5
:10216000134A1B68A2620193A34201D10123A36118
:10217000200000F01FF86060200000F01BF8A06055
:10218000200000F017F800220421E0606068FFF7EB
:1021900077FF01220921A068FFF772FF02221221B6
:1021A000E068FFF76DFF0123A361D2E7A42D0000D3
:1021B000C9200000F8B50700FFF7A4FF1F4B1E68F9
:1021C000B369002B02D13000FFF7BCFF4836B4687A
:1021D0007368013B04D53368002B22D03668F6E7DC
:1021E0000C22A55E002D1AD12000154B5830E3605B
:1021F000656600F047F8FFF78DFF200008222900F0
:102200002560A560656025616561A5615C30FFF7AB
:102210002DFC6563A563A564E5642000F8BD683402
:10222000D7E704213800FFF757FF041E3060D5D1EF
:10223000FFF770FF0C233B60EFE7C046A42D0000C2
:102240000100FFFFF7B504000600002701914834A4
:102250006368A5680093009B013B009304D5246844
:10226000002CF5D13800FEBDAB89012B08D90E2218
:10227000AB5E013304D029003000019B984707432F
:102280006835E8E7704770477047000070B50E008A
:102290001D000E23C95E140096B0002908DA0C2236
:1022A000B35E00222A601B0611D48023DB000FE0FE
:1022B0006A4600F071FC0028F1DBF02301991B0253
:1022C0001940054BC9184B4259412960EDE740239D
:1022D0000020236016B070BD00E0FFFFF7B50226B6
:1022E0008B8905000C00334206D02300473323605E
:1022F000236101236361F7BD6A4601ABFFF7C6FFA7
:1023000000990700280000F081F8002808D10C226D
:10231000A35E9A05EFD4032293431E43A681E4E70C
:102320000F4BAB628023A28920601343A381009BE3
:1023300020616361019B002B0DD028000E23E15E1C
:1023400000F03CFC002806D00322A38993431A0026
:1023500001231343A381A0890743A781CBE7C0468C
:10236000C920000010B5034B0100186800F04EF8BA
:1023700010BDC0460C00002070B50500002910D02B
:102380000C1F2368002B00DAE418280000F048FC3A
:102390001D4A1368002B05D163601460280000F00B
:1023A00047FC70BDA34208D9216860188342F3D16D
:1023B00018685B6841182160EEE71A005B68002B23
:1023C00001D0A342F9D911685018A0420BD120685E
:1023D0000918501811608342E0D118685B684118F1
:1023E00011605360DAE7A04202D90C232B60D5E7D5
:1023F00021686018834203D118685B684118216026
:1024000063605460CAE7C0467C010020F8B503232E
:10241000CD1C9D43083506000C2D1FD20C25A9426A
:102420001ED8300000F0FCFB25490A681400002C7F
:102430001AD1244F3B68002B04D12100300000F05A
:1024400027FB38602900300000F022FB431C2BD111
:102450000C233000336000F0EBFB03E0002DDEDAEC
:102460000C2333600020F8BD23685B1B19D40B2BB1
:1024700003D92360E418256003E06368A2420ED10B
:102480000B60300000F0D4FB200007220B30231D2E
:102490009043C21A9842E6D01B1AA350E3E7536058
:1024A000EFE722006468C2E70323C41C9C43A042F8
:1024B000E1D0211A300000F0EBFA431CDBD1C7E772
:1024C0007C01002080010020936810B5013B9360DF
:1024D000002B04DA9469A34207DB0A2905D01368AC
:1024E000581C10601970080010BDFFF72FFC010088
:1024F000F9E7F8B506000F001400D518AC4201D179
:10250000002007E021783A003000FFF7DDFF0134BA
:10251000431CF3D1F8BD0000F0B5A1B006000C00DB
:102520001F000392002804D08369002B01D1FFF71C
:1025300009FE8E4B9C421CD17468636EDB0705D488
:10254000A3899B0502D4A06DFFF79DFEA3891B07FD
:1025500002D52369002B1DD121003000FFF74CFC70
:10256000002817D0636EDB070DD50120404221B053
:10257000F0BD7F4B9C4201D1B468DEE77D4B9C42AD
:10258000DBD1F468D9E7A3899B05EED4A06DFFF7F2
:102590007BFEEAE7002308AD6B6120336B761033D6
:1025A000AB760797039F3B78002B01D0252B4ED1AC
:1025B000039BFB1A0593039B9F420DD0059B2100B3
:1025C0003000039AFFF795FF431C00D1B5E06A691C
:1025D000059B944663446B613B78002B00D1ACE0D3
:1025E00001227B1C0393002352426A6004A95432E7
:1025F00052182B60EB60AB601370AB65039B052238
:1026000019785D4800F000FB039B5F1C002820D177
:102610002A68D30604D5532304A95B182021197016
:10262000130704D5532304A95B182B211970039BAE
:102630001B782A2B16D00021EB68039F3A78781C70
:10264000303A8446092A4FD9002911D117E00137C1
:10265000A9E7494B2A68C01A0123834013432B6022
:102660000397CBE7079B191D1B680791002B01DB24
:102670000B9304E05B42EB60022313432B603B7837
:102680002E2B0AD17B782A2B37D1079B02371A1DB4
:102690001B680792002B2DDB0993032239783748FA
:1026A00000F0B2FA002807D0344B2A68C01A402341
:1026B0008340134301372B6039787B1C0622304856
:1026C0000393297600F0A0FA002845D02D4B002B6B
:1026D00027D10722079B07339343083307936B697E
:1026E000049A9B186B615DE70A214B4367469B1870
:1026F0000939A3E701235B42CEE700231A00013723
:102700006B603978781C30398446092903D9002B4D
:10271000C3D00992C1E70A235A4367465218093BBE
:10272000EFE707AB0093220029003000164B00E0D2
:1027300000BF0490049B0133D1D1636EDB0705D445
:10274000A3899B0502D4A06DFFF79EFDA3895B06BC
:1027500000D50AE70D980AE707AB0093220029008D
:102760003000094B00F082F8E3E7C046C82D0000B6
:10277000E82D0000A82D0000082E00000E2E0000FD
:10278000122E000000000000F3240000F7B5150031
:1027900001938A680B690C000090934200DA1300E1
:1027A00022002B6043321278002A01D001332B60C3
:1027B00023689B0602D52B6802332B602268062310
:1027C00017001F401A4227D0230043331B785A1E9C
:1027D00093412268920630D4220001990098089E05
:1027E0004332B047431C25D0062320682A68E1689D
:1027F00000250340042B03D18D1AEB43DB171D404A
:10280000A3682269934201DD9B1AED180027BD429F
:1028100020D1002010E00137E3682A689B1ABB42F0
:10282000D2DD2200012301990098089E1932B04799
:10283000431CF0D101204042FEBD3020E11843315D
:10284000087021005A1C45310978A218433202331E
:102850001170C1E72200012301990098089E1A32E5
:10286000B047431CE6D00137D1E70000F0B58BB08C
:1028700006920A0043320793059004920A7E0C00E8
:10288000109B782A07D8622A09D8002A00D1C1E013
:10289000582A00D18CE026004236327022E0100027
:1028A00063381528F7D800F0DFF916001F00F6FF8F
:1028B000F6FFF6FFF6FF1F00F6FFF6FFF6FFF6FF46
:1028C000A80036009A00F6FFF6FFB900F6FF3600C2
:1028D000F6FFF6FF9E0026001A684236111D1960A9
:1028E000136833700123A7E0086819680A1D0506FC
:1028F0000BD50D681A60002D03DA2D23049A6D4262
:102900001370614B0A2703931BE00D681A604106A0
:10291000F1D52DB2EFE70D681968081D18602E0675
:1029200001D50D6803E06D06FBD50D68ADB2564BC1
:10293000082703936F2A00D0023723000022433375
:102940001A706368A360002B03DB042221689143A3
:102950002160002D02D1049E002B0CD0049E280083
:102960003900FFF72BF8039B013E5B5C33702B00B3
:1029700005009F42F3D9082F09D12368DB0706D54C
:1029800063682269934202DC3023013E3370049B6A
:102990009B1B2361079B210000930598069B09AAB6
:1029A000FFF7F4FE431C4CD1012040420BB0F0BDB8
:1029B00045310A70344A03921A68216820CA1A60A5
:1029C000080616D5CB0702D520231943216010270E
:1029D000002DB2D1202322689A432260ADE7202245
:1029E00009680A4322602200782145321170274A83
:1029F000E1E74806E6D5ADB2E4E71A680D68101DB8
:102A00004969186013682E0601D5196002E06D0649
:102A1000FBD519800023049E2361BBE71A68111DB2
:102A20001960166800213000626800F0EDF8002897
:102A300001D0801B6060636823610023049A1370D7
:102A4000A8E72369320006990598079DA847431C0B
:102A5000AAD023689B0715D4099BE0689842A5DAA1
:102A60001800A3E72200012306990598079E193252
:102A7000B047431C98D00135E368099A9B1AAB42D2
:102A8000F0DCE9E70025F7E7192E00002A2E000008
:102A9000002370B5064D040008002B60FEF7EAFE27
:102AA000431C03D12B68002B00D0236070BDC046AF
:102AB0008401002070B50C000E25495F00F0C0F8BD
:102AC000002803DB636D1B18636570BDA389024A90
:102AD0001340A381F9E7C046FFEFFFFFF8B51F00E1
:102AE0008B8905000C001600DB0505D50E23C95E99
:102AF0000022022300F074F8A389054A280013403D
:102B0000A38132000E23E15E3B0000F01FF8F8BD08
:102B1000FFEFFFFF70B50C000E25495F00F060F875
:102B2000A389421C03D1054A1340A38170BD8022B2
:102B300052011343A3816065F8E7C046FFEFFFFF32
:102B400010B50E23C95E00F015F810BD70B5040075
:102B5000080011001A000023054D2B60FEF762FEED
:102B6000431C03D12B68002B00D0236070BDC046EE
:102B700084010020002370B5064D040008002B607E
:102B8000FEF78AFE431C03D12B68002B00D0236084
:102B900070BDC04684010020002370B5064D0400BE
:102BA000080011002B60FEF77AFE431C03D12B684E
:102BB000002B00D0236070BD84010020002370B57D
:102BC000064D040008002B60FEF76EFE431C03D187
:102BD0002B68002B00D0236070BDC046840100200C
:102BE00070B50400080011001A000023054D2B6089
:102BF000FEF75CFE431C03D12B68002B00D0236042
:102C000070BDC04684010020C9B28218904201D133
:102C10000020704703788B42FBD00130F6E70000BC
:102C200010B50248FFF72FFB10BDC0467801002009
:102C300010B50248FFF728FB10BDC0467801002000
:102C400070B50400080011001A000023054D2B6028
:102C5000FEF7C6FD431C03D12B68002B00D0236078
:102C600070BDC0468401002003B47146490840008D
:102C70004900095E49008E4403BC704754686520D2
:102C80006F757470757420697320747269676765F5
:102C900072656420627920544320636F756E746599
:102CA000720D0A002D2D2047657474696E672053DC
:102CB000746172746564204578616D706C65202D57
:102CC0002D0D0A2D2D2053414D4431305F58504C6D
:102CD00041494E45445F4D494E49202D2D0D0A2D49
:102CE0002D20436F6D70696C65643A2044656320E4
:102CF000323020323032312031323A32353A3133CB
:102D0000202D2D0D0A2D2D205072657373696E676D
:102D100020616E642072656C6561736520627574F4
:102D2000746F6E205357302073686F756C64206D1C
:102D3000616B65204C454430206F6E20616E6420CD
:102D40006F6666202D2D0D000D0E0000000800425C
:102D5000000C004200100042090A0B00C60E0000E1
:102D6000C20E0000C20E00002A0F00002A0F000051
:102D7000DA0E0000CC0E0000E00E00001A0F00007A
:102D8000B00F0000900F0000900F00001A1000001C
:102D9000A20F0000BC0F0000940F0000CA0F00003B
:102DA0000A100000100000200000000000000000D9
:102DB0000000000000000000000000000000000013
:102DC0000000000000000000000000000000000003
:102DD00000000000000000000000000000000000F3
:102DE00000000000000000000000000000000000E3
:102DF00000000000000000000000000000000000D3
:102E00000000000000000000232D302B2000686C23
:102E10004C006566674546470030313233343536FD
:102E20003738394142434445460030313233343536
:102E3000363738396162636465660000F8B5C046AC
:102E4000F8BC08BC9E467047B5000000F8B5C04607
:0C2E5000F8BC08BC9E4670478D000000D6
:102E5C0001000000401F00000800000010000020CE
:102E6C0000000000C82D0000E82D0000A82D000077
:102E7C000000000000000000000000000000000046
:102E8C000000000000000000000000000000000036
:102E9C000000000000000000000000000000000026
:102EAC000000000000000000000000000000000016
:102EBC000000000000000000000000000000000006
:0400000300001719C9
:00000001FF
